{
  "_format": "hh-sol-artifact-1",
  "address": "0xf1cfe32b4603fc30d711379a43ae505a5b216a97",
  "contractName": "userStream",
  "sourceName": "contracts/userStream.sol",
  "abi": [
    {
      "inputs": [],
      "stateMutability": "nonpayable",
      "type": "constructor"
    },
    {
      "anonymous": false,
      "inputs": [
        {
          "indexed": true,
          "internalType": "uint256",
          "name": "stremId",
          "type": "uint256"
        },
        {
          "indexed": true,
          "internalType": "address",
          "name": "creator",
          "type": "address"
        },
        {
          "indexed": false,
          "internalType": "string",
          "name": "stramCode",
          "type": "string"
        },
        {
          "indexed": false,
          "internalType": "string",
          "name": "title",
          "type": "string"
        },
        {
          "indexed": false,
          "internalType": "string",
          "name": "description",
          "type": "string"
        },
        {
          "indexed": false,
          "internalType": "bool",
          "name": "premium",
          "type": "bool"
        }
      ],
      "name": "StreamCreated",
      "type": "event"
    },
    {
      "inputs": [
        {
          "internalType": "string",
          "name": "_streamCode",
          "type": "string"
        },
        {
          "internalType": "bool",
          "name": "_premium",
          "type": "bool"
        },
        {
          "internalType": "string",
          "name": "_title",
          "type": "string"
        },
        {
          "internalType": "string",
          "name": "_description",
          "type": "string"
        }
      ],
      "name": "createStream",
      "outputs": [],
      "stateMutability": "nonpayable",
      "type": "function"
    },
    {
      "inputs": [],
      "name": "getAllArtists",
      "outputs": [
        {
          "components": [
            {
              "internalType": "uint256",
              "name": "userId",
              "type": "uint256"
            },
            {
              "internalType": "address",
              "name": "userAddress",
              "type": "address"
            },
            {
              "internalType": "string",
              "name": "name",
              "type": "string"
            },
            {
              "internalType": "string",
              "name": "description",
              "type": "string"
            },
            {
              "internalType": "string",
              "name": "profileImage",
              "type": "string"
            }
          ],
          "internalType": "struct userStream.User[]",
          "name": "",
          "type": "tuple[]"
        }
      ],
      "stateMutability": "view",
      "type": "function"
    },
    {
      "inputs": [
        {
          "internalType": "string",
          "name": "_name",
          "type": "string"
        },
        {
          "internalType": "string",
          "name": "_description",
          "type": "string"
        },
        {
          "internalType": "string",
          "name": "_profileImage",
          "type": "string"
        }
      ],
      "name": "registerUser",
      "outputs": [
        {
          "internalType": "uint256",
          "name": "",
          "type": "uint256"
        }
      ],
      "stateMutability": "nonpayable",
      "type": "function"
    },
    {
      "inputs": [
        {
          "internalType": "string",
          "name": "",
          "type": "string"
        }
      ],
      "name": "streamCodeToStream",
      "outputs": [
        {
          "internalType": "uint256",
          "name": "stremId",
          "type": "uint256"
        },
        {
          "internalType": "string",
          "name": "stramCode",
          "type": "string"
        },
        {
          "internalType": "string",
          "name": "title",
          "type": "string"
        },
        {
          "internalType": "string",
          "name": "description",
          "type": "string"
        },
        {
          "internalType": "bool",
          "name": "premium",
          "type": "bool"
        },
        {
          "internalType": "bool",
          "name": "isLive",
          "type": "bool"
        }
      ],
      "stateMutability": "view",
      "type": "function"
    },
    {
      "inputs": [
        {
          "internalType": "uint256",
          "name": "",
          "type": "uint256"
        }
      ],
      "name": "streamIdToStream",
      "outputs": [
        {
          "internalType": "uint256",
          "name": "stremId",
          "type": "uint256"
        },
        {
          "internalType": "string",
          "name": "stramCode",
          "type": "string"
        },
        {
          "internalType": "string",
          "name": "title",
          "type": "string"
        },
        {
          "internalType": "string",
          "name": "description",
          "type": "string"
        },
        {
          "internalType": "bool",
          "name": "premium",
          "type": "bool"
        },
        {
          "internalType": "bool",
          "name": "isLive",
          "type": "bool"
        }
      ],
      "stateMutability": "view",
      "type": "function"
    },
    {
      "inputs": [
        {
          "internalType": "uint256",
          "name": "",
          "type": "uint256"
        }
      ],
      "name": "streamIdToUser",
      "outputs": [
        {
          "internalType": "address",
          "name": "",
          "type": "address"
        }
      ],
      "stateMutability": "view",
      "type": "function"
    },
    {
      "inputs": [
        {
          "internalType": "uint256",
          "name": "_userId",
          "type": "uint256"
        },
        {
          "internalType": "string",
          "name": "_name",
          "type": "string"
        },
        {
          "internalType": "string",
          "name": "_description",
          "type": "string"
        },
        {
          "internalType": "string",
          "name": "_profileImage",
          "type": "string"
        }
      ],
      "name": "updateUser",
      "outputs": [],
      "stateMutability": "nonpayable",
      "type": "function"
    },
    {
      "inputs": [
        {
          "internalType": "uint256",
          "name": "",
          "type": "uint256"
        }
      ],
      "name": "userIdToUser",
      "outputs": [
        {
          "internalType": "uint256",
          "name": "userId",
          "type": "uint256"
        },
        {
          "internalType": "address",
          "name": "userAddress",
          "type": "address"
        },
        {
          "internalType": "string",
          "name": "name",
          "type": "string"
        },
        {
          "internalType": "string",
          "name": "description",
          "type": "string"
        },
        {
          "internalType": "string",
          "name": "profileImage",
          "type": "string"
        }
      ],
      "stateMutability": "view",
      "type": "function"
    },
    {
      "inputs": [
        {
          "internalType": "address",
          "name": "",
          "type": "address"
        }
      ],
      "name": "userMapping",
      "outputs": [
        {
          "internalType": "uint256",
          "name": "userId",
          "type": "uint256"
        },
        {
          "internalType": "address",
          "name": "userAddress",
          "type": "address"
        },
        {
          "internalType": "string",
          "name": "name",
          "type": "string"
        },
        {
          "internalType": "string",
          "name": "description",
          "type": "string"
        },
        {
          "internalType": "string",
          "name": "profileImage",
          "type": "string"
        }
      ],
      "stateMutability": "view",
      "type": "function"
    },
    {
      "inputs": [],
      "name": "withdraw",
      "outputs": [],
      "stateMutability": "nonpayable",
      "type": "function"
    }
  ],
  "bytecode": "0x608060405234801561001057600080fd5b5033600260006101000a81548173ffffffffffffffffffffffffffffffffffffffff021916908373ffffffffffffffffffffffffffffffffffffffff1602179055506122c8806100616000396000f3fe608060405234801561001057600080fd5b506004361061009e5760003560e01c8063975a584a11610066578063975a584a14610166578063ccfe571714610182578063d637dcfa146101b2578063d900ea58146101e2578063f803ace3146102175761009e565b8063118b9535146100a35780633ccfd60b146100d757806350839170146100e1578063612d859a1461011557806390302cd21461014a575b600080fd5b6100bd60048036038101906100b89190611551565b610235565b6040516100ce959493929190611636565b60405180910390f35b6100df610423565b005b6100fb60048036038101906100f691906116ca565b6104fc565b60405161010c959493929190611636565b60405180910390f35b61012f600480360381019061012a91906116ca565b6106ea565b60405161014196959493929190611712565b60405180910390f35b610164600480360381019061015f91906118e9565b6108d8565b005b610180600480360381019061017b91906119a4565b610b51565b005b61019c600480360381019061019791906116ca565b610d22565b6040516101a99190611a5f565b60405180910390f35b6101cc60048036038101906101c79190611a7a565b610d55565b6040516101d99190611b21565b60405180910390f35b6101fc60048036038101906101f79190611b3c565b610f72565b60405161020e96959493929190611712565b60405180910390f35b61021f611176565b60405161022c9190611d33565b60405180910390f35b60036020528060005260406000206000915090508060000154908060010160009054906101000a900473ffffffffffffffffffffffffffffffffffffffff169080600201805461028490611d84565b80601f01602080910402602001604051908101604052809291908181526020018280546102b090611d84565b80156102fd5780601f106102d2576101008083540402835291602001916102fd565b820191906000526020600020905b8154815290600101906020018083116102e057829003601f168201915b50505050509080600301805461031290611d84565b80601f016020809104026020016040519081016040528092919081815260200182805461033e90611d84565b801561038b5780601f106103605761010080835404028352916020019161038b565b820191906000526020600020905b81548152906001019060200180831161036e57829003601f168201915b5050505050908060040180546103a090611d84565b80601f01602080910402602001604051908101604052809291908181526020018280546103cc90611d84565b80156104195780601f106103ee57610100808354040283529160200191610419565b820191906000526020600020905b8154815290600101906020018083116103fc57829003601f168201915b5050505050905085565b600260009054906101000a900473ffffffffffffffffffffffffffffffffffffffff1673ffffffffffffffffffffffffffffffffffffffff163373ffffffffffffffffffffffffffffffffffffffff16146104b3576040517f08c379a00000000000000000000000000000000000000000000000000000000081526004016104aa90611e01565b60405180910390fd5b3373ffffffffffffffffffffffffffffffffffffffff166108fc479081150290604051600060405180830381858888f193505050501580156104f9573d6000803e3d6000fd5b50565b60046020528060005260406000206000915090508060000154908060010160009054906101000a900473ffffffffffffffffffffffffffffffffffffffff169080600201805461054b90611d84565b80601f016020809104026020016040519081016040528092919081815260200182805461057790611d84565b80156105c45780601f10610599576101008083540402835291602001916105c4565b820191906000526020600020905b8154815290600101906020018083116105a757829003601f168201915b5050505050908060030180546105d990611d84565b80601f016020809104026020016040519081016040528092919081815260200182805461060590611d84565b80156106525780601f1061062757610100808354040283529160200191610652565b820191906000526020600020905b81548152906001019060200180831161063557829003601f168201915b50505050509080600401805461066790611d84565b80601f016020809104026020016040519081016040528092919081815260200182805461069390611d84565b80156106e05780601f106106b5576101008083540402835291602001916106e0565b820191906000526020600020905b8154815290600101906020018083116106c357829003601f168201915b5050505050905085565b600560205280600052604060002060009150905080600001549080600101805461071390611d84565b80601f016020809104026020016040519081016040528092919081815260200182805461073f90611d84565b801561078c5780601f106107615761010080835404028352916020019161078c565b820191906000526020600020905b81548152906001019060200180831161076f57829003601f168201915b5050505050908060020180546107a190611d84565b80601f01602080910402602001604051908101604052809291908181526020018280546107cd90611d84565b801561081a5780601f106107ef5761010080835404028352916020019161081a565b820191906000526020600020905b8154815290600101906020018083116107fd57829003601f168201915b50505050509080600301805461082f90611d84565b80601f016020809104026020016040519081016040528092919081815260200182805461085b90611d84565b80156108a85780601f1061087d576101008083540402835291602001916108a8565b820191906000526020600020905b81548152906001019060200180831161088b57829003601f168201915b5050505050908060040160009054906101000a900460ff16908060040160019054906101000a900460ff16905086565b6108e26001611476565b60006108ee600161148c565b90506040518060c00160405280828152602001868152602001848152602001838152602001851515815260200160011515815250600560008381526020019081526020016000206000820151816000015560208201518160010190816109549190611fcd565b50604082015181600201908161096a9190611fcd565b5060608201518160030190816109809190611fcd565b5060808201518160040160006101000a81548160ff02191690831515021790555060a08201518160040160016101000a81548160ff021916908315150217905550905050336007600083815260200190815260200160002060006101000a81548173ffffffffffffffffffffffffffffffffffffffff021916908373ffffffffffffffffffffffffffffffffffffffff1602179055506040518060c00160405280828152602001868152602001848152602001838152602001851515815260200160011515815250600686604051610a5891906120db565b9081526020016040518091039020600082015181600001556020820151816001019081610a859190611fcd565b506040820151816002019081610a9b9190611fcd565b506060820151816003019081610ab19190611fcd565b5060808201518160040160006101000a81548160ff02191690831515021790555060a08201518160040160016101000a81548160ff0219169083151502179055509050503373ffffffffffffffffffffffffffffffffffffffff16817f28c0edff7a0d38da6cd48487ae89195cf9fc2181f0cd4b486905e03c9dd2329387868689604051610b4294939291906120f2565b60405180910390a35050505050565b60008403610b94576040517f08c379a0000000000000000000000000000000000000000000000000000000008152600401610b8b90612198565b60405180910390fd5b600060046000868152602001908152602001600020905083816002019081610bbc9190611fcd565b5082816003019081610bce9190611fcd565b5081816004019081610be09190611fcd565b506040518060a00160405280826000015481526020018260010160009054906101000a900473ffffffffffffffffffffffffffffffffffffffff1673ffffffffffffffffffffffffffffffffffffffff16815260200185815260200184815260200183815250600360003373ffffffffffffffffffffffffffffffffffffffff1673ffffffffffffffffffffffffffffffffffffffff1681526020019081526020016000206000820151816000015560208201518160010160006101000a81548173ffffffffffffffffffffffffffffffffffffffff021916908373ffffffffffffffffffffffffffffffffffffffff1602179055506040820151816002019081610ceb9190611fcd565b506060820151816003019081610d019190611fcd565b506080820151816004019081610d179190611fcd565b509050505050505050565b60076020528060005260406000206000915054906101000a900473ffffffffffffffffffffffffffffffffffffffff1681565b6000610d616000611476565b6000610d6d600061148c565b90506040518060a001604052808281526020013373ffffffffffffffffffffffffffffffffffffffff16815260200186815260200185815260200184815250600460008381526020019081526020016000206000820151816000015560208201518160010160006101000a81548173ffffffffffffffffffffffffffffffffffffffff021916908373ffffffffffffffffffffffffffffffffffffffff1602179055506040820151816002019081610e259190611fcd565b506060820151816003019081610e3b9190611fcd565b506080820151816004019081610e519190611fcd565b509050506040518060a001604052808281526020013373ffffffffffffffffffffffffffffffffffffffff16815260200186815260200185815260200184815250600360003373ffffffffffffffffffffffffffffffffffffffff1673ffffffffffffffffffffffffffffffffffffffff1681526020019081526020016000206000820151816000015560208201518160010160006101000a81548173ffffffffffffffffffffffffffffffffffffffff021916908373ffffffffffffffffffffffffffffffffffffffff1602179055506040820151816002019081610f379190611fcd565b506060820151816003019081610f4d9190611fcd565b506080820151816004019081610f639190611fcd565b50905050809150509392505050565b600681805160208101820180518482526020830160208501208183528095505050505050600091509050806000015490806001018054610fb190611d84565b80601f0160208091040260200160405190810160405280929190818152602001828054610fdd90611d84565b801561102a5780601f10610fff5761010080835404028352916020019161102a565b820191906000526020600020905b81548152906001019060200180831161100d57829003601f168201915b50505050509080600201805461103f90611d84565b80601f016020809104026020016040519081016040528092919081815260200182805461106b90611d84565b80156110b85780601f1061108d576101008083540402835291602001916110b8565b820191906000526020600020905b81548152906001019060200180831161109b57829003601f168201915b5050505050908060030180546110cd90611d84565b80601f01602080910402602001604051908101604052809291908181526020018280546110f990611d84565b80156111465780601f1061111b57610100808354040283529160200191611146565b820191906000526020600020905b81548152906001019060200180831161112957829003601f168201915b5050505050908060040160009054906101000a900460ff16908060040160019054906101000a900460ff16905086565b60606000611184600061148c565b67ffffffffffffffff81111561119d5761119c611792565b5b6040519080825280602002602001820160405280156111d657816020015b6111c361149a565b8152602001906001900390816111bb5790505b5090506000805b6111e7600061148c565b81101561146d57600460006001836111ff91906121e7565b81526020019081526020016000206040518060a0016040529081600082015481526020016001820160009054906101000a900473ffffffffffffffffffffffffffffffffffffffff1673ffffffffffffffffffffffffffffffffffffffff1673ffffffffffffffffffffffffffffffffffffffff16815260200160028201805461128890611d84565b80601f01602080910402602001604051908101604052809291908181526020018280546112b490611d84565b80156113015780601f106112d657610100808354040283529160200191611301565b820191906000526020600020905b8154815290600101906020018083116112e457829003601f168201915b5050505050815260200160038201805461131a90611d84565b80601f016020809104026020016040519081016040528092919081815260200182805461134690611d84565b80156113935780601f1061136857610100808354040283529160200191611393565b820191906000526020600020905b81548152906001019060200180831161137657829003601f168201915b505050505081526020016004820180546113ac90611d84565b80601f01602080910402602001604051908101604052809291908181526020018280546113d890611d84565b80156114255780601f106113fa57610100808354040283529160200191611425565b820191906000526020600020905b81548152906001019060200180831161140857829003601f168201915b5050505050815250508383815181106114415761144061221b565b5b602002602001018190525081806114579061224a565b92505080806114659061224a565b9150506111dd565b50819250505090565b6001816000016000828254019250508190555050565b600081600001549050919050565b6040518060a0016040528060008152602001600073ffffffffffffffffffffffffffffffffffffffff1681526020016060815260200160608152602001606081525090565b6000604051905090565b600080fd5b600080fd5b600073ffffffffffffffffffffffffffffffffffffffff82169050919050565b600061151e826114f3565b9050919050565b61152e81611513565b811461153957600080fd5b50565b60008135905061154b81611525565b92915050565b600060208284031215611567576115666114e9565b5b60006115758482850161153c565b91505092915050565b6000819050919050565b6115918161157e565b82525050565b6115a081611513565b82525050565b600081519050919050565b600082825260208201905092915050565b60005b838110156115e05780820151818401526020810190506115c5565b60008484015250505050565b6000601f19601f8301169050919050565b6000611608826115a6565b61161281856115b1565b93506116228185602086016115c2565b61162b816115ec565b840191505092915050565b600060a08201905061164b6000830188611588565b6116586020830187611597565b818103604083015261166a81866115fd565b9050818103606083015261167e81856115fd565b9050818103608083015261169281846115fd565b90509695505050505050565b6116a78161157e565b81146116b257600080fd5b50565b6000813590506116c48161169e565b92915050565b6000602082840312156116e0576116df6114e9565b5b60006116ee848285016116b5565b91505092915050565b60008115159050919050565b61170c816116f7565b82525050565b600060c0820190506117276000830189611588565b818103602083015261173981886115fd565b9050818103604083015261174d81876115fd565b9050818103606083015261176181866115fd565b90506117706080830185611703565b61177d60a0830184611703565b979650505050505050565b600080fd5b600080fd5b7f4e487b7100000000000000000000000000000000000000000000000000000000600052604160045260246000fd5b6117ca826115ec565b810181811067ffffffffffffffff821117156117e9576117e8611792565b5b80604052505050565b60006117fc6114df565b905061180882826117c1565b919050565b600067ffffffffffffffff82111561182857611827611792565b5b611831826115ec565b9050602081019050919050565b82818337600083830152505050565b600061186061185b8461180d565b6117f2565b90508281526020810184848401111561187c5761187b61178d565b5b61188784828561183e565b509392505050565b600082601f8301126118a4576118a3611788565b5b81356118b484826020860161184d565b91505092915050565b6118c6816116f7565b81146118d157600080fd5b50565b6000813590506118e3816118bd565b92915050565b60008060008060808587031215611903576119026114e9565b5b600085013567ffffffffffffffff811115611921576119206114ee565b5b61192d8782880161188f565b945050602061193e878288016118d4565b935050604085013567ffffffffffffffff81111561195f5761195e6114ee565b5b61196b8782880161188f565b925050606085013567ffffffffffffffff81111561198c5761198b6114ee565b5b6119988782880161188f565b91505092959194509250565b600080600080608085870312156119be576119bd6114e9565b5b60006119cc878288016116b5565b945050602085013567ffffffffffffffff8111156119ed576119ec6114ee565b5b6119f98782880161188f565b935050604085013567ffffffffffffffff811115611a1a57611a196114ee565b5b611a268782880161188f565b925050606085013567ffffffffffffffff811115611a4757611a466114ee565b5b611a538782880161188f565b91505092959194509250565b6000602082019050611a746000830184611597565b92915050565b600080600060608486031215611a9357611a926114e9565b5b600084013567ffffffffffffffff811115611ab157611ab06114ee565b5b611abd8682870161188f565b935050602084013567ffffffffffffffff811115611ade57611add6114ee565b5b611aea8682870161188f565b925050604084013567ffffffffffffffff811115611b0b57611b0a6114ee565b5b611b178682870161188f565b9150509250925092565b6000602082019050611b366000830184611588565b92915050565b600060208284031215611b5257611b516114e9565b5b600082013567ffffffffffffffff811115611b7057611b6f6114ee565b5b611b7c8482850161188f565b91505092915050565b600081519050919050565b600082825260208201905092915050565b6000819050602082019050919050565b611bba8161157e565b82525050565b611bc981611513565b82525050565b600082825260208201905092915050565b6000611beb826115a6565b611bf58185611bcf565b9350611c058185602086016115c2565b611c0e816115ec565b840191505092915050565b600060a083016000830151611c316000860182611bb1565b506020830151611c446020860182611bc0565b5060408301518482036040860152611c5c8282611be0565b91505060608301518482036060860152611c768282611be0565b91505060808301518482036080860152611c908282611be0565b9150508091505092915050565b6000611ca98383611c19565b905092915050565b6000602082019050919050565b6000611cc982611b85565b611cd38185611b90565b935083602082028501611ce585611ba1565b8060005b85811015611d215784840389528151611d028582611c9d565b9450611d0d83611cb1565b925060208a01995050600181019050611ce9565b50829750879550505050505092915050565b60006020820190508181036000830152611d4d8184611cbe565b905092915050565b7f4e487b7100000000000000000000000000000000000000000000000000000000600052602260045260246000fd5b60006002820490506001821680611d9c57607f821691505b602082108103611daf57611dae611d55565b5b50919050565b7f4f6e6c79206f776e65722063616e207769746864726177210000000000000000600082015250565b6000611deb6018836115b1565b9150611df682611db5565b602082019050919050565b60006020820190508181036000830152611e1a81611dde565b9050919050565b60008190508160005260206000209050919050565b60006020601f8301049050919050565b600082821b905092915050565b600060088302611e837fffffffffffffffffffffffffffffffffffffffffffffffffffffffffffffffff82611e46565b611e8d8683611e46565b95508019841693508086168417925050509392505050565b6000819050919050565b6000611eca611ec5611ec08461157e565b611ea5565b61157e565b9050919050565b6000819050919050565b611ee483611eaf565b611ef8611ef082611ed1565b848454611e53565b825550505050565b600090565b611f0d611f00565b611f18818484611edb565b505050565b5b81811015611f3c57611f31600082611f05565b600181019050611f1e565b5050565b601f821115611f8157611f5281611e21565b611f5b84611e36565b81016020851015611f6a578190505b611f7e611f7685611e36565b830182611f1d565b50505b505050565b600082821c905092915050565b6000611fa460001984600802611f86565b1980831691505092915050565b6000611fbd8383611f93565b9150826002028217905092915050565b611fd6826115a6565b67ffffffffffffffff811115611fef57611fee611792565b5b611ff98254611d84565b612004828285611f40565b600060209050601f8311600181146120375760008415612025578287015190505b61202f8582611fb1565b865550612097565b601f19841661204586611e21565b60005b8281101561206d57848901518255600182019150602085019450602081019050612048565b8683101561208a5784890151612086601f891682611f93565b8355505b6001600288020188555050505b505050505050565b600081905092915050565b60006120b5826115a6565b6120bf818561209f565b93506120cf8185602086016115c2565b80840191505092915050565b60006120e782846120aa565b915081905092915050565b6000608082019050818103600083015261210c81876115fd565b9050818103602083015261212081866115fd565b9050818103604083015261213481856115fd565b90506121436060830184611703565b95945050505050565b7f57726f6e67207573657249640000000000000000000000000000000000000000600082015250565b6000612182600c836115b1565b915061218d8261214c565b602082019050919050565b600060208201905081810360008301526121b181612175565b9050919050565b7f4e487b7100000000000000000000000000000000000000000000000000000000600052601160045260246000fd5b60006121f28261157e565b91506121fd8361157e565b9250828201905080821115612215576122146121b8565b5b92915050565b7f4e487b7100000000000000000000000000000000000000000000000000000000600052603260045260246000fd5b60006122558261157e565b91507fffffffffffffffffffffffffffffffffffffffffffffffffffffffffffffffff8203612287576122866121b8565b5b60018201905091905056fea26469706673582212204a01af0a8cbc18ca75d3be7a80a0ed74eda302ee9bb256d25b67e03fe303eee164736f6c63430008130033",
  "linkReferences": {},
  "deployedLinkReferences": {}
}